{"abi":[{"type":"constructor","inputs":[],"stateMutability":"nonpayable"},{"type":"function","name":"DEFLATION_DENOMINATOR","inputs":[],"outputs":[{"name":"","type":"uint256","internalType":"uint256"}],"stateMutability":"view"},{"type":"function","name":"DEFLATION_RATE","inputs":[],"outputs":[{"name":"","type":"uint256","internalType":"uint256"}],"stateMutability":"view"},{"type":"function","name":"INITIAL_SUPPLY","inputs":[],"outputs":[{"name":"","type":"uint256","internalType":"uint256"}],"stateMutability":"view"},{"type":"function","name":"allowance","inputs":[{"name":"owner","type":"address","internalType":"address"},{"name":"spender","type":"address","internalType":"address"}],"outputs":[{"name":"","type":"uint256","internalType":"uint256"}],"stateMutability":"view"},{"type":"function","name":"approve","inputs":[{"name":"spender","type":"address","internalType":"address"},{"name":"value","type":"uint256","internalType":"uint256"}],"outputs":[{"name":"","type":"bool","internalType":"bool"}],"stateMutability":"nonpayable"},{"type":"function","name":"balanceOf","inputs":[{"name":"account","type":"address","internalType":"address"}],"outputs":[{"name":"","type":"uint256","internalType":"uint256"}],"stateMutability":"view"},{"type":"function","name":"decimals","inputs":[],"outputs":[{"name":"","type":"uint8","internalType":"uint8"}],"stateMutability":"view"},{"type":"function","name":"lastRebaseTime","inputs":[],"outputs":[{"name":"","type":"uint256","internalType":"uint256"}],"stateMutability":"view"},{"type":"function","name":"name","inputs":[],"outputs":[{"name":"","type":"string","internalType":"string"}],"stateMutability":"view"},{"type":"function","name":"owner","inputs":[],"outputs":[{"name":"","type":"address","internalType":"address"}],"stateMutability":"view"},{"type":"function","name":"rawBalanceOf","inputs":[{"name":"account","type":"address","internalType":"address"}],"outputs":[{"name":"","type":"uint256","internalType":"uint256"}],"stateMutability":"view"},{"type":"function","name":"rebase","inputs":[],"outputs":[],"stateMutability":"nonpayable"},{"type":"function","name":"rebaseIndex","inputs":[],"outputs":[{"name":"","type":"uint256","internalType":"uint256"}],"stateMutability":"view"},{"type":"function","name":"renounceOwnership","inputs":[],"outputs":[],"stateMutability":"nonpayable"},{"type":"function","name":"symbol","inputs":[],"outputs":[{"name":"","type":"string","internalType":"string"}],"stateMutability":"view"},{"type":"function","name":"totalSupply","inputs":[],"outputs":[{"name":"","type":"uint256","internalType":"uint256"}],"stateMutability":"view"},{"type":"function","name":"transfer","inputs":[{"name":"to","type":"address","internalType":"address"},{"name":"value","type":"uint256","internalType":"uint256"}],"outputs":[{"name":"","type":"bool","internalType":"bool"}],"stateMutability":"nonpayable"},{"type":"function","name":"transferFrom","inputs":[{"name":"from","type":"address","internalType":"address"},{"name":"to","type":"address","internalType":"address"},{"name":"value","type":"uint256","internalType":"uint256"}],"outputs":[{"name":"","type":"bool","internalType":"bool"}],"stateMutability":"nonpayable"},{"type":"function","name":"transferOwnership","inputs":[{"name":"newOwner","type":"address","internalType":"address"}],"outputs":[],"stateMutability":"nonpayable"},{"type":"event","name":"Approval","inputs":[{"name":"owner","type":"address","indexed":true,"internalType":"address"},{"name":"spender","type":"address","indexed":true,"internalType":"address"},{"name":"value","type":"uint256","indexed":false,"internalType":"uint256"}],"anonymous":false},{"type":"event","name":"OwnershipTransferred","inputs":[{"name":"previousOwner","type":"address","indexed":true,"internalType":"address"},{"name":"newOwner","type":"address","indexed":true,"internalType":"address"}],"anonymous":false},{"type":"event","name":"Rebase","inputs":[{"name":"newIndex","type":"uint256","indexed":false,"internalType":"uint256"}],"anonymous":false},{"type":"event","name":"Transfer","inputs":[{"name":"from","type":"address","indexed":true,"internalType":"address"},{"name":"to","type":"address","indexed":true,"internalType":"address"},{"name":"value","type":"uint256","indexed":false,"internalType":"uint256"}],"anonymous":false},{"type":"error","name":"ERC20InsufficientAllowance","inputs":[{"name":"spender","type":"address","internalType":"address"},{"name":"allowance","type":"uint256","internalType":"uint256"},{"name":"needed","type":"uint256","internalType":"uint256"}]},{"type":"error","name":"ERC20InsufficientBalance","inputs":[{"name":"sender","type":"address","internalType":"address"},{"name":"balance","type":"uint256","internalType":"uint256"},{"name":"needed","type":"uint256","internalType":"uint256"}]},{"type":"error","name":"ERC20InvalidApprover","inputs":[{"name":"approver","type":"address","internalType":"address"}]},{"type":"error","name":"ERC20InvalidReceiver","inputs":[{"name":"receiver","type":"address","internalType":"address"}]},{"type":"error","name":"ERC20InvalidSender","inputs":[{"name":"sender","type":"address","internalType":"address"}]},{"type":"error","name":"ERC20InvalidSpender","inputs":[{"name":"spender","type":"address","internalType":"address"}]},{"type":"error","name":"OwnableInvalidOwner","inputs":[{"name":"owner","type":"address","internalType":"address"}]},{"type":"error","name":"OwnableUnauthorizedAccount","inputs":[{"name":"account","type":"address","internalType":"address"}]}],"bytecode":{"object":"0x6080604052670de0b6b3a76400006007553480156200001c575f80fd5b50336040518060400160405280601281526020017f4465666c6174696f6e61727920546f6b656e00000000000000000000000000008152506040518060400160405280600381526020017f444654000000000000000000000000000000000000000000000000000000000081525081600390816200009b919062000734565b508060049081620000ad919062000734565b5050505f73ffffffffffffffffffffffffffffffffffffffff168173ffffffffffffffffffffffffffffffffffffffff160362000123575f6040517f1e4fbdf70000000000000000000000000000000000000000000000000000000081526004016200011a91906200085b565b60405180910390fd5b62000134816200015f60201b60201c565b5062000152336a52b7d2dcc80cd2e40000006200022260201b60201c565b4260068190555062000944565b5f60055f9054906101000a900473ffffffffffffffffffffffffffffffffffffffff1690508160055f6101000a81548173ffffffffffffffffffffffffffffffffffffffff021916908373ffffffffffffffffffffffffffffffffffffffff1602179055508173ffffffffffffffffffffffffffffffffffffffff168173ffffffffffffffffffffffffffffffffffffffff167f8be0079c531659141344cd1fd0a4f28419497f9722a3daafe3b4186f6b6457e060405160405180910390a35050565b5f73ffffffffffffffffffffffffffffffffffffffff168273ffffffffffffffffffffffffffffffffffffffff160362000295575f6040517fec442f050000000000000000000000000000000000000000000000000000000081526004016200028c91906200085b565b60405180910390fd5b620002a85f8383620002ac60201b60201c565b5050565b5f73ffffffffffffffffffffffffffffffffffffffff168373ffffffffffffffffffffffffffffffffffffffff160362000300578060025f828254620002f39190620008a3565b92505081905550620003d1565b5f805f8573ffffffffffffffffffffffffffffffffffffffff1673ffffffffffffffffffffffffffffffffffffffff1681526020019081526020015f20549050818110156200038c578381836040517fe450d38c0000000000000000000000000000000000000000000000000000000081526004016200038393929190620008ee565b60405180910390fd5b8181035f808673ffffffffffffffffffffffffffffffffffffffff1673ffffffffffffffffffffffffffffffffffffffff1681526020019081526020015f2081905550505b5f73ffffffffffffffffffffffffffffffffffffffff168273ffffffffffffffffffffffffffffffffffffffff16036200041a578060025f828254039250508190555062000464565b805f808473ffffffffffffffffffffffffffffffffffffffff1673ffffffffffffffffffffffffffffffffffffffff1681526020019081526020015f205f82825401925050819055505b8173ffffffffffffffffffffffffffffffffffffffff168373ffffffffffffffffffffffffffffffffffffffff167fddf252ad1be2c89b69c2b068fc378daa952ba7f163c4a11628f55a4df523b3ef83604051620004c3919062000929565b60405180910390a3505050565b5f81519050919050565b7f4e487b71000000000000000000000000000000000000000000000000000000005f52604160045260245ffd5b7f4e487b71000000000000000000000000000000000000000000000000000000005f52602260045260245ffd5b5f60028204905060018216806200054c57607f821691505b60208210810362000562576200056162000507565b5b50919050565b5f819050815f5260205f209050919050565b5f6020601f8301049050919050565b5f82821b905092915050565b5f60088302620005c67fffffffffffffffffffffffffffffffffffffffffffffffffffffffffffffffff8262000589565b620005d2868362000589565b95508019841693508086168417925050509392505050565b5f819050919050565b5f819050919050565b5f6200061c620006166200061084620005ea565b620005f3565b620005ea565b9050919050565b5f819050919050565b6200063783620005fc565b6200064f620006468262000623565b84845462000595565b825550505050565b5f90565b6200066562000657565b620006728184846200062c565b505050565b5b8181101562000699576200068d5f826200065b565b60018101905062000678565b5050565b601f821115620006e857620006b28162000568565b620006bd846200057a565b81016020851015620006cd578190505b620006e5620006dc856200057a565b83018262000677565b50505b505050565b5f82821c905092915050565b5f6200070a5f1984600802620006ed565b1980831691505092915050565b5f620007248383620006f9565b9150826002028217905092915050565b6200073f82620004d0565b67ffffffffffffffff8111156200075b576200075a620004da565b5b62000767825462000534565b620007748282856200069d565b5f60209050601f831160018114620007aa575f841562000795578287015190505b620007a1858262000717565b86555062000810565b601f198416620007ba8662000568565b5f5b82811015620007e357848901518255600182019150602085019450602081019050620007bc565b86831015620008035784890151620007ff601f891682620006f9565b8355505b6001600288020188555050505b505050505050565b5f73ffffffffffffffffffffffffffffffffffffffff82169050919050565b5f620008438262000818565b9050919050565b620008558162000837565b82525050565b5f602082019050620008705f8301846200084a565b92915050565b7f4e487b71000000000000000000000000000000000000000000000000000000005f52601160045260245ffd5b5f620008af82620005ea565b9150620008bc83620005ea565b9250828201905080821115620008d757620008d662000876565b5b92915050565b620008e881620005ea565b82525050565b5f606082019050620009035f8301866200084a565b620009126020830185620008dd565b620009216040830184620008dd565b949350505050565b5f6020820190506200093e5f830184620008dd565b92915050565b6114be80620009525f395ff3fe608060405234801561000f575f80fd5b506004361061011f575f3560e01c806370a08231116100ab578063af14052c1161006f578063af14052c1461030d578063d1cf0bee14610317578063dd62ed3e14610335578063f2fde38b14610365578063f7f45265146103815761011f565b806370a0823114610267578063715018a6146102975780638da5cb5b146102a157806395d89b41146102bf578063a9059cbb146102dd5761011f565b80631924063e116100f25780631924063e146101bf57806323b872dd146101dd5780632ff2e9dc1461020d578063313ce5671461022b57806347e1b372146102495761011f565b806306fdde0314610123578063095ea7b31461014157806312064c341461017157806318160ddd146101a1575b5f80fd5b61012b61039f565b6040516101389190610fb7565b60405180910390f35b61015b60048036038101906101569190611068565b61042f565b60405161016891906110c0565b60405180910390f35b61018b600480360381019061018691906110d9565b610451565b6040516101989190611113565b60405180910390f35b6101a9610462565b6040516101b69190611113565b60405180910390f35b6101c7610490565b6040516101d49190611113565b60405180910390f35b6101f760048036038101906101f2919061112c565b610496565b60405161020491906110c0565b60405180910390f35b6102156104c4565b6040516102229190611113565b60405180910390f35b6102336104d3565b6040516102409190611197565b60405180910390f35b6102516104db565b60405161025e9190611113565b60405180910390f35b610281600480360381019061027c91906110d9565b6104e1565b60405161028e9190611113565b60405180910390f35b61029f610512565b005b6102a9610525565b6040516102b691906111bf565b60405180910390f35b6102c761054d565b6040516102d49190610fb7565b60405180910390f35b6102f760048036038101906102f29190611068565b6105dd565b60405161030491906110c0565b60405180910390f35b6103156105ff565b005b61031f610701565b60405161032c9190611113565b60405180910390f35b61034f600480360381019061034a91906111d8565b610706565b60405161035c9190611113565b60405180910390f35b61037f600480360381019061037a91906110d9565b610788565b005b61038961080c565b6040516103969190611113565b60405180910390f35b6060600380546103ae90611243565b80601f01602080910402602001604051908101604052809291908181526020018280546103da90611243565b80156104255780601f106103fc57610100808354040283529160200191610425565b820191905f5260205f20905b81548152906001019060200180831161040857829003601f168201915b5050505050905090565b5f80610439610811565b9050610446818585610818565b600191505092915050565b5f61045b8261082a565b9050919050565b5f670de0b6b3a764000060075461047761086f565b61048191906112a0565b61048b919061130e565b905090565b60065481565b5f806104a0610811565b90506104ad858285610878565b6104b885858561090b565b60019150509392505050565b6a52b7d2dcc80cd2e400000081565b5f6012905090565b60075481565b5f670de0b6b3a76400006007546104f78461082a565b61050191906112a0565b61050b919061130e565b9050919050565b61051a6109fb565b6105235f610a82565b565b5f60055f9054906101000a900473ffffffffffffffffffffffffffffffffffffffff16905090565b60606004805461055c90611243565b80601f016020809104026020016040519081016040528092919081815260200182805461058890611243565b80156105d35780601f106105aa576101008083540402835291602001916105d3565b820191905f5260205f20905b8154815290600101906020018083116105b657829003601f168201915b5050505050905090565b5f806105e7610811565b90506105f481858561090b565b600191505092915050565b6301e13380600654610611919061133e565b421015610653576040517f08c379a000000000000000000000000000000000000000000000000000000000815260040161064a906113bb565b60405180910390fd5b5f6301e133806006544261066791906113d9565b610671919061130e565b90505f5b818110156106bd5760646001606461068d91906113d9565b60075461069a91906112a0565b6106a4919061130e565b60078190555080806106b59061140c565b915050610675565b50426006819055507fafae32ce2847c13a56ab802c034c27d3c19f1d61be48c424c5df134145cd44d06007546040516106f69190611113565b60405180910390a150565b600181565b5f60015f8473ffffffffffffffffffffffffffffffffffffffff1673ffffffffffffffffffffffffffffffffffffffff1681526020019081526020015f205f8373ffffffffffffffffffffffffffffffffffffffff1673ffffffffffffffffffffffffffffffffffffffff1681526020019081526020015f2054905092915050565b6107906109fb565b5f73ffffffffffffffffffffffffffffffffffffffff168173ffffffffffffffffffffffffffffffffffffffff1603610800575f6040517f1e4fbdf70000000000000000000000000000000000000000000000000000000081526004016107f791906111bf565b60405180910390fd5b61080981610a82565b50565b606481565b5f33905090565b6108258383836001610b45565b505050565b5f805f8373ffffffffffffffffffffffffffffffffffffffff1673ffffffffffffffffffffffffffffffffffffffff1681526020019081526020015f20549050919050565b5f600254905090565b5f6108838484610706565b90507fffffffffffffffffffffffffffffffffffffffffffffffffffffffffffffffff81101561090557818110156108f6578281836040517ffb8f41b20000000000000000000000000000000000000000000000000000000081526004016108ed93929190611453565b60405180910390fd5b61090484848484035f610b45565b5b50505050565b5f73ffffffffffffffffffffffffffffffffffffffff168373ffffffffffffffffffffffffffffffffffffffff160361097b575f6040517f96c6fd1e00000000000000000000000000000000000000000000000000000000815260040161097291906111bf565b60405180910390fd5b5f73ffffffffffffffffffffffffffffffffffffffff168273ffffffffffffffffffffffffffffffffffffffff16036109eb575f6040517fec442f050000000000000000000000000000000000000000000000000000000081526004016109e291906111bf565b60405180910390fd5b6109f6838383610d14565b505050565b610a03610811565b73ffffffffffffffffffffffffffffffffffffffff16610a21610525565b73ffffffffffffffffffffffffffffffffffffffff1614610a8057610a44610811565b6040517f118cdaa7000000000000000000000000000000000000000000000000000000008152600401610a7791906111bf565b60405180910390fd5b565b5f60055f9054906101000a900473ffffffffffffffffffffffffffffffffffffffff1690508160055f6101000a81548173ffffffffffffffffffffffffffffffffffffffff021916908373ffffffffffffffffffffffffffffffffffffffff1602179055508173ffffffffffffffffffffffffffffffffffffffff168173ffffffffffffffffffffffffffffffffffffffff167f8be0079c531659141344cd1fd0a4f28419497f9722a3daafe3b4186f6b6457e060405160405180910390a35050565b5f73ffffffffffffffffffffffffffffffffffffffff168473ffffffffffffffffffffffffffffffffffffffff1603610bb5575f6040517fe602df05000000000000000000000000000000000000000000000000000000008152600401610bac91906111bf565b60405180910390fd5b5f73ffffffffffffffffffffffffffffffffffffffff168373ffffffffffffffffffffffffffffffffffffffff1603610c25575f6040517f94280d62000000000000000000000000000000000000000000000000000000008152600401610c1c91906111bf565b60405180910390fd5b8160015f8673ffffffffffffffffffffffffffffffffffffffff1673ffffffffffffffffffffffffffffffffffffffff1681526020019081526020015f205f8573ffffffffffffffffffffffffffffffffffffffff1673ffffffffffffffffffffffffffffffffffffffff1681526020019081526020015f20819055508015610d0e578273ffffffffffffffffffffffffffffffffffffffff168473ffffffffffffffffffffffffffffffffffffffff167f8c5be1e5ebec7d5bd14f71427d1e84f3dd0314c0f7b2291e5b200ac8c7c3b92584604051610d059190611113565b60405180910390a35b50505050565b5f73ffffffffffffffffffffffffffffffffffffffff168373ffffffffffffffffffffffffffffffffffffffff1603610d64578060025f828254610d58919061133e565b92505081905550610e32565b5f805f8573ffffffffffffffffffffffffffffffffffffffff1673ffffffffffffffffffffffffffffffffffffffff1681526020019081526020015f2054905081811015610ded578381836040517fe450d38c000000000000000000000000000000000000000000000000000000008152600401610de493929190611453565b60405180910390fd5b8181035f808673ffffffffffffffffffffffffffffffffffffffff1673ffffffffffffffffffffffffffffffffffffffff1681526020019081526020015f2081905550505b5f73ffffffffffffffffffffffffffffffffffffffff168273ffffffffffffffffffffffffffffffffffffffff1603610e79578060025f8282540392505081905550610ec3565b805f808473ffffffffffffffffffffffffffffffffffffffff1673ffffffffffffffffffffffffffffffffffffffff1681526020019081526020015f205f82825401925050819055505b8173ffffffffffffffffffffffffffffffffffffffff168373ffffffffffffffffffffffffffffffffffffffff167fddf252ad1be2c89b69c2b068fc378daa952ba7f163c4a11628f55a4df523b3ef83604051610f209190611113565b60405180910390a3505050565b5f81519050919050565b5f82825260208201905092915050565b5f5b83811015610f64578082015181840152602081019050610f49565b5f8484015250505050565b5f601f19601f8301169050919050565b5f610f8982610f2d565b610f938185610f37565b9350610fa3818560208601610f47565b610fac81610f6f565b840191505092915050565b5f6020820190508181035f830152610fcf8184610f7f565b905092915050565b5f80fd5b5f73ffffffffffffffffffffffffffffffffffffffff82169050919050565b5f61100482610fdb565b9050919050565b61101481610ffa565b811461101e575f80fd5b50565b5f8135905061102f8161100b565b92915050565b5f819050919050565b61104781611035565b8114611051575f80fd5b50565b5f813590506110628161103e565b92915050565b5f806040838503121561107e5761107d610fd7565b5b5f61108b85828601611021565b925050602061109c85828601611054565b9150509250929050565b5f8115159050919050565b6110ba816110a6565b82525050565b5f6020820190506110d35f8301846110b1565b92915050565b5f602082840312156110ee576110ed610fd7565b5b5f6110fb84828501611021565b91505092915050565b61110d81611035565b82525050565b5f6020820190506111265f830184611104565b92915050565b5f805f6060848603121561114357611142610fd7565b5b5f61115086828701611021565b935050602061116186828701611021565b925050604061117286828701611054565b9150509250925092565b5f60ff82169050919050565b6111918161117c565b82525050565b5f6020820190506111aa5f830184611188565b92915050565b6111b981610ffa565b82525050565b5f6020820190506111d25f8301846111b0565b92915050565b5f80604083850312156111ee576111ed610fd7565b5b5f6111fb85828601611021565b925050602061120c85828601611021565b9150509250929050565b7f4e487b71000000000000000000000000000000000000000000000000000000005f52602260045260245ffd5b5f600282049050600182168061125a57607f821691505b60208210810361126d5761126c611216565b5b50919050565b7f4e487b71000000000000000000000000000000000000000000000000000000005f52601160045260245ffd5b5f6112aa82611035565b91506112b583611035565b92508282026112c381611035565b915082820484148315176112da576112d9611273565b5b5092915050565b7f4e487b71000000000000000000000000000000000000000000000000000000005f52601260045260245ffd5b5f61131882611035565b915061132383611035565b925082611333576113326112e1565b5b828204905092915050565b5f61134882611035565b915061135383611035565b925082820190508082111561136b5761136a611273565b5b92915050565b7f546f6f206561726c7920666f72207265626173650000000000000000000000005f82015250565b5f6113a5601483610f37565b91506113b082611371565b602082019050919050565b5f6020820190508181035f8301526113d281611399565b9050919050565b5f6113e382611035565b91506113ee83611035565b925082820390508181111561140657611405611273565b5b92915050565b5f61141682611035565b91507fffffffffffffffffffffffffffffffffffffffffffffffffffffffffffffffff820361144857611447611273565b5b600182019050919050565b5f6060820190506114665f8301866111b0565b6114736020830185611104565b6114806040830184611104565b94935050505056fea2646970667358221220c7aa543326f615721a7979391d7cccf0af73676b26d58e76d09cca8d8519ecf464736f6c63430008140033","linkReferences":{}},"methodIdentifiers":{"DEFLATION_DENOMINATOR()":"f7f45265","DEFLATION_RATE()":"d1cf0bee","INITIAL_SUPPLY()":"2ff2e9dc","allowance(address,address)":"dd62ed3e","approve(address,uint256)":"095ea7b3","balanceOf(address)":"70a08231","decimals()":"313ce567","lastRebaseTime()":"1924063e","name()":"06fdde03","owner()":"8da5cb5b","rawBalanceOf(address)":"12064c34","rebase()":"af14052c","rebaseIndex()":"47e1b372","renounceOwnership()":"715018a6","symbol()":"95d89b41","totalSupply()":"18160ddd","transfer(address,uint256)":"a9059cbb","transferFrom(address,address,uint256)":"23b872dd","transferOwnership(address)":"f2fde38b"},"id":26}